{
  "_format": "hh-sol-artifact-1",
  "contractName": "Marketplace",
  "sourceName": "contracts/Marketplace.sol",
  "address": "0xC3b971Df41E74A4e1656771Fde49efBf9D7B6DC0",
  "abi": [
    {
      "anonymous": false,
      "inputs": [
        {
          "indexed": false,
          "internalType": "uint256",
          "name": "id",
          "type": "uint256"
        },
        {
          "indexed": false,
          "internalType": "string",
          "name": "name",
          "type": "string"
        },
        {
          "indexed": false,
          "internalType": "uint256",
          "name": "price",
          "type": "uint256"
        },
        {
          "indexed": false,
          "internalType": "address",
          "name": "owner",
          "type": "address"
        },
        {
          "indexed": false,
          "internalType": "bool",
          "name": "purchased",
          "type": "bool"
        }
      ],
      "name": "ProductCreated",
      "type": "event"
    },
    {
      "anonymous": false,
      "inputs": [
        {
          "indexed": false,
          "internalType": "uint256",
          "name": "id",
          "type": "uint256"
        },
        {
          "indexed": false,
          "internalType": "string",
          "name": "name",
          "type": "string"
        },
        {
          "indexed": false,
          "internalType": "uint256",
          "name": "price",
          "type": "uint256"
        },
        {
          "indexed": false,
          "internalType": "address",
          "name": "owner",
          "type": "address"
        },
        {
          "indexed": false,
          "internalType": "bool",
          "name": "purchased",
          "type": "bool"
        }
      ],
      "name": "ProductPurchased",
      "type": "event"
    },
    {
      "inputs": [
        {
          "internalType": "string",
          "name": "_name",
          "type": "string"
        },
        {
          "internalType": "uint256",
          "name": "_price",
          "type": "uint256"
        }
      ],
      "name": "createProduct",
      "outputs": [],
      "stateMutability": "nonpayable",
      "type": "function"
    },
    {
      "inputs": [],
      "name": "productCount",
      "outputs": [
        {
          "internalType": "uint256",
          "name": "",
          "type": "uint256"
        }
      ],
      "stateMutability": "view",
      "type": "function"
    },
    {
      "inputs": [
        {
          "internalType": "uint256",
          "name": "",
          "type": "uint256"
        }
      ],
      "name": "products",
      "outputs": [
        {
          "internalType": "uint256",
          "name": "id",
          "type": "uint256"
        },
        {
          "internalType": "string",
          "name": "name",
          "type": "string"
        },
        {
          "internalType": "uint256",
          "name": "price",
          "type": "uint256"
        },
        {
          "internalType": "address payable",
          "name": "owner",
          "type": "address"
        },
        {
          "internalType": "bool",
          "name": "purchased",
          "type": "bool"
        }
      ],
      "stateMutability": "view",
      "type": "function"
    },
    {
      "inputs": [
        {
          "internalType": "uint256",
          "name": "_id",
          "type": "uint256"
        }
      ],
      "name": "purchaseProduct",
      "outputs": [],
      "stateMutability": "payable",
      "type": "function"
    }
  ],
  "bytecode": "0x6080604052600060015534801561001557600080fd5b506111bf806100256000396000f3fe60806040526004361061003f5760003560e01c806338e76a03146100445780637acc0b2014610060578063e0f6ef87146100a1578063e9300c6c146100cc575b600080fd5b61005e600480360381019061005991906107dd565b6100f5565b005b34801561006c57600080fd5b50610087600480360381019061008291906107dd565b6104d3565b604051610098959493929190610905565b60405180910390f35b3480156100ad57600080fd5b506100b66105be565b6040516100c3919061095f565b60405180910390f35b3480156100d857600080fd5b506100f360048036038101906100ee9190610aaf565b6105c4565b005b60008060008381526020019081526020016000206040518060a00160405290816000820154815260200160018201805461012e90610b3a565b80601f016020809104026020016040519081016040528092919081815260200182805461015a90610b3a565b80156101a75780601f1061017c576101008083540402835291602001916101a7565b820191906000526020600020905b81548152906001019060200180831161018a57829003601f168201915b50505050508152602001600282015481526020016003820160009054906101000a900473ffffffffffffffffffffffffffffffffffffffff1673ffffffffffffffffffffffffffffffffffffffff1673ffffffffffffffffffffffffffffffffffffffff1681526020016003820160149054906101000a900460ff1615151515815250509050600081600001511180156102475750600154816000015111155b610286576040517f08c379a000000000000000000000000000000000000000000000000000000000815260040161027d90610bb7565b60405180910390fd5b80604001513410156102cd576040517f08c379a00000000000000000000000000000000000000000000000000000000081526004016102c490610c23565b60405180910390fd5b806080015115610312576040517f08c379a000000000000000000000000000000000000000000000000000000000815260040161030990610c8f565b60405180910390fd5b3373ffffffffffffffffffffffffffffffffffffffff16816060015173ffffffffffffffffffffffffffffffffffffffff1603610384576040517f08c379a000000000000000000000000000000000000000000000000000000000815260040161037b90610cfb565b60405180910390fd5b806060015173ffffffffffffffffffffffffffffffffffffffff166108fc349081150290604051600060405180830381858888f193505050501580156103ce573d6000803e3d6000fd5b506001816080019015159081151581525050806000808481526020019081526020016000206000820151816000015560208201518160010190816104129190610ec7565b506040820151816002015560608201518160030160006101000a81548173ffffffffffffffffffffffffffffffffffffffff021916908373ffffffffffffffffffffffffffffffffffffffff16021790555060808201518160030160146101000a81548160ff0219169083151502179055509050507f79558d0d7d4d900e2f15c4cc0a665f1acdbe415e44de900ecdd1e5bf12b56f4e82826020015183604001513360016040516104c7959493929190610fba565b60405180910390a15050565b60006020528060005260406000206000915090508060000154908060010180546104fc90610b3a565b80601f016020809104026020016040519081016040528092919081815260200182805461052890610b3a565b80156105755780601f1061054a57610100808354040283529160200191610575565b820191906000526020600020905b81548152906001019060200180831161055857829003601f168201915b5050505050908060020154908060030160009054906101000a900473ffffffffffffffffffffffffffffffffffffffff16908060030160149054906101000a900460ff16905085565b60015481565b6000825111610608576040517f08c379a00000000000000000000000000000000000000000000000000000000081526004016105ff90611060565b60405180910390fd5b6000811161064b576040517f08c379a0000000000000000000000000000000000000000000000000000000008152600401610642906110f2565b60405180910390fd5b6001600081548092919061065e90611141565b91905055506040518060a0016040528060015481526020018381526020018281526020013373ffffffffffffffffffffffffffffffffffffffff1681526020016000151581525060008060015481526020019081526020016000206000820151816000015560208201518160010190816106d89190610ec7565b506040820151816002015560608201518160030160006101000a81548173ffffffffffffffffffffffffffffffffffffffff021916908373ffffffffffffffffffffffffffffffffffffffff16021790555060808201518160030160146101000a81548160ff0219169083151502179055509050507fbc59c0c8165864dcceb377dd07d8f431d4303f8e501cb0a0374a10cc68d718366001548383336000604051610787959493929190610fba565b60405180910390a15050565b6000604051905090565b600080fd5b600080fd5b6000819050919050565b6107ba816107a7565b81146107c557600080fd5b50565b6000813590506107d7816107b1565b92915050565b6000602082840312156107f3576107f261079d565b5b6000610801848285016107c8565b91505092915050565b610813816107a7565b82525050565b600081519050919050565b600082825260208201905092915050565b60005b83811015610853578082015181840152602081019050610838565b60008484015250505050565b6000601f19601f8301169050919050565b600061087b82610819565b6108858185610824565b9350610895818560208601610835565b61089e8161085f565b840191505092915050565b600073ffffffffffffffffffffffffffffffffffffffff82169050919050565b60006108d4826108a9565b9050919050565b6108e4816108c9565b82525050565b60008115159050919050565b6108ff816108ea565b82525050565b600060a08201905061091a600083018861080a565b818103602083015261092c8187610870565b905061093b604083018661080a565b61094860608301856108db565b61095560808301846108f6565b9695505050505050565b6000602082019050610974600083018461080a565b92915050565b600080fd5b600080fd5b7f4e487b7100000000000000000000000000000000000000000000000000000000600052604160045260246000fd5b6109bc8261085f565b810181811067ffffffffffffffff821117156109db576109da610984565b5b80604052505050565b60006109ee610793565b90506109fa82826109b3565b919050565b600067ffffffffffffffff821115610a1a57610a19610984565b5b610a238261085f565b9050602081019050919050565b82818337600083830152505050565b6000610a52610a4d846109ff565b6109e4565b905082815260208101848484011115610a6e57610a6d61097f565b5b610a79848285610a30565b509392505050565b600082601f830112610a9657610a9561097a565b5b8135610aa6848260208601610a3f565b91505092915050565b60008060408385031215610ac657610ac561079d565b5b600083013567ffffffffffffffff811115610ae457610ae36107a2565b5b610af085828601610a81565b9250506020610b01858286016107c8565b9150509250929050565b7f4e487b7100000000000000000000000000000000000000000000000000000000600052602260045260246000fd5b60006002820490506001821680610b5257607f821691505b602082108103610b6557610b64610b0b565b5b50919050565b7f496e76616c69642070726f647563742049440000000000000000000000000000600082015250565b6000610ba1601283610824565b9150610bac82610b6b565b602082019050919050565b60006020820190508181036000830152610bd081610b94565b9050919050565b7f4e6f7420656e6f7567682045746865722073656e740000000000000000000000600082015250565b6000610c0d601583610824565b9150610c1882610bd7565b602082019050919050565b60006020820190508181036000830152610c3c81610c00565b9050919050565b7f50726f6475637420616c72656164792070757263686173656400000000000000600082015250565b6000610c79601983610824565b9150610c8482610c43565b602082019050919050565b60006020820190508181036000830152610ca881610c6c565b9050919050565b7f43616e6e6f7420707572636861736520796f7572206f776e2070726f64756374600082015250565b6000610ce5602083610824565b9150610cf082610caf565b602082019050919050565b60006020820190508181036000830152610d1481610cd8565b9050919050565b60008190508160005260206000209050919050565b60006020601f8301049050919050565b600082821b905092915050565b600060088302610d7d7fffffffffffffffffffffffffffffffffffffffffffffffffffffffffffffffff82610d40565b610d878683610d40565b95508019841693508086168417925050509392505050565b6000819050919050565b6000610dc4610dbf610dba846107a7565b610d9f565b6107a7565b9050919050565b6000819050919050565b610dde83610da9565b610df2610dea82610dcb565b848454610d4d565b825550505050565b600090565b610e07610dfa565b610e12818484610dd5565b505050565b5b81811015610e3657610e2b600082610dff565b600181019050610e18565b5050565b601f821115610e7b57610e4c81610d1b565b610e5584610d30565b81016020851015610e64578190505b610e78610e7085610d30565b830182610e17565b50505b505050565b600082821c905092915050565b6000610e9e60001984600802610e80565b1980831691505092915050565b6000610eb78383610e8d565b9150826002028217905092915050565b610ed082610819565b67ffffffffffffffff811115610ee957610ee8610984565b5b610ef38254610b3a565b610efe828285610e3a565b600060209050601f831160018114610f315760008415610f1f578287015190505b610f298582610eab565b865550610f91565b601f198416610f3f86610d1b565b60005b82811015610f6757848901518255600182019150602085019450602081019050610f42565b86831015610f845784890151610f80601f891682610e8d565b8355505b6001600288020188555050505b505050505050565b6000610fa4826108a9565b9050919050565b610fb481610f99565b82525050565b600060a082019050610fcf600083018861080a565b8181036020830152610fe18187610870565b9050610ff0604083018661080a565b610ffd6060830185610fab565b61100a60808301846108f6565b9695505050505050565b7f50726f64756374206e616d652069732072657175697265640000000000000000600082015250565b600061104a601883610824565b915061105582611014565b602082019050919050565b600060208201905081810360008301526110798161103d565b9050919050565b7f50726f647563742070726963652073686f756c6420626520677265617465722060008201527f7468616e207a65726f0000000000000000000000000000000000000000000000602082015250565b60006110dc602983610824565b91506110e782611080565b604082019050919050565b6000602082019050818103600083015261110b816110cf565b9050919050565b7f4e487b7100000000000000000000000000000000000000000000000000000000600052601160045260246000fd5b600061114c826107a7565b91507fffffffffffffffffffffffffffffffffffffffffffffffffffffffffffffffff820361117e5761117d611112565b5b60018201905091905056fea26469706673582212202d8ff0678046c9b6e44967c28b36a53929fd99014d711dcce616154e6d81e9dc64736f6c63430008180033",
  "linkReferences": {},
  "deployedLinkReferences": {}
}